S01200006F737A692D74657374732E73726563ED
S11300000C9436000C9453000C9453000C9453003D
S11300100C9453000C9453000C9453000C94530010
S11300200C9453000C9453000C9453000C947A00D9
S11300300C94BD000C9453000C9453000C94530086
S11300400C9453000C9453000C9453000C945300E0
S11300500C9453000C9453000C9453000C945300D0
S11300600C9453000C9453000102040811241FBE85
S1130070CFEFD8E0DEBFCDBF11E0A0E0B1E0E8EF04
S1130080F1E002C005900D92A830B107D9F721E044
S1130090A8E0B1E001C01D92AC30B207E1F70E94C4
S11300A0F5000C94FA000C94000080910B018F5F12
S11300B019F080930B01089588E380930B018091DC
S11300C0090190910A01019690930A018093090114
S11300D080FF03C080E285B9089515B8089583B7F9
S11300E0817F83BF83B7816083BF889583B78E7F09
S11300F083BF08951F920F920FB60F9211242F936E
S11301003F934F935F936F937F938F939F93AF939B
S1130110BF93EF93FF9398B1E0910801F0E0E859A1
S1130120FF4F8081892B88B9E091080181E08E0F0F
S113013080930801F0E0EE0FFF1FE050FF4F808135
S1130140918190938B0080938A00809108018F7035
S1130150809308010E945500FF91EF91BF91AF91E8
S11301609F918F917F916F915F914F913F912F91CB
S11301700F900FBE0F901F9018951F920F920FB6FD
S11301800F9211248F9388B1807F88B98F910F903B
S11301900FBE0F901F90189580E284B98FE087B945
S11301A0E0E8F0E080818C758083E1E8F0E0808114
S11301B0807E8A60808386B3866086BBEFE6F0E04B
S11301C080818660808388E893E19093890080939E
S11301D088008CED95E090938B0080938A001092B8
S11301E0850010928400789408950E94CC000E94A7
S10B01F06F00FDCFF894FFCF6E
S10B01F8DC05DC05DC05DC0577
S9030000FC
