:100000000C9434000C943E000C943E000C943E0082
:100010000C943E000C943E000C943E000C943E0068
:100020000C943E000C943E000C943E000C943E0058
:100030000C943E000C943E000C943E000C943E0048
:100040000C943E000C943E000C943E000C943E0038
:100050000C943E000C943E000C943E000C943E0028
:100060000C943E000C943E0011241FBECFEFD8E04C
:10007000DEBFCDBF0E9440000C945C000C940000D9
:1000800080E284B940E220E43FE105C00197F1F746
:100090002150310919F084E690E0F8CF45B920E409
:1000A0003FE105C00197F1F72150310919F088EEC1
:0C00B00093E0F8CF15B8E7CFF894FFCF2D
:00000001FF
