:100000000C9434000C9446000C9446000C9446006A
:100010000C9446000C9446000C9446000C94460048
:100020000C9446000C9446000C9446000C9462001C
:100030000C9486000C9446000C9446000C944600E8
:100040000C9446000C9446000C9446000C94460018
:100050000C9446000C9446000C9446000C94460008
:100060000C9446000C94460011241FBECFEFD8E03C
:10007000DEBFCDBF21E0A0E0B1E001C01D92A33002
:10008000B207E1F70E94BC000C94BF000C94000082
:10009000809102018F5F19F080930201089588E337
:1000A000809302018091000190910101019690934B
:1000B00001018093000180FF03C080E285B90895AB
:1000C00015B808951F920F920FB60F9211242F9317
:1000D0003F934F935F936F937F938F939F93AF93D0
:1000E000BF93EF93FF930E944800FF91EF91BF9160
:1000F000AF919F918F917F916F915F914F913F91C0
:100100002F910F900FBE0F901F9018951F920F9276
:100110000FB60F9211248F9388B1807F88B98F9189
:100120000F900FBE0F901F90189580E284B9E0E801
:10013000F0E080818C758083E1E8F0E08081807E52
:100140008A60808386B3866086BBEFE6F0E08081BC
:100150008660808388E893E190938900809388008B
:100160008CED95E090938B0080938A00109285002F
:1001700010928400789408950E949500FFCFF8941F
:02018000FFCFAF
:00000001FF
